:100000000C9461000C947E000C947E000C947E0095
:100010000C947E000C947E000C947E000C947E0068
:100020000C947E000C947E000C947E000C947E0058
:100030000C947E000C947E000C947E000C947E0048
:100040000C9431010C947E000C947E000C947E0084
:100050000C947E000C947E000C947E000C947E0028
:100060000C947E000C947E00000000002400270009
:100070002A0000000000250028002B0000000000DE
:1000800023002600290004040404040404040202DA
:100090000202020203030303030301020408102007
:1000A0004080010204081020010204081020000012
:1000B0000008000201000003040700000000000027
:1000C000000011241FBECFEFD8E0DEBFCDBF11E08E
:1000D000A0E0B1E0ECE2F4E002C005900D92A8309F
:1000E000B107D9F721E0A8E0B1E001C01D92A2312B
:1000F000B207E1F70E947B010C9414020C940000FB
:10010000833081F028F4813099F08230A9F008958D
:100110008730A9F08830C9F08430B1F48091800034
:100120008F7D03C0809180008F7780938000089539
:1001300084B58F7784BD089584B58F7DFBCF809182
:10014000B0008F778093B00008958091B0008F7DCC
:10015000F9CFCF93DF93282F30E0F901E255FF4F1D
:100160008491F901E656FF4FD491F901EA57FF4F08
:10017000C491CC23A1F081110E948000EC2FF0E00B
:10018000EE0FFF1FE458FF4FA591B491EC91ED23C2
:1001900081E090E009F480E0DF91CF91089580E064
:1001A00090E0FACF1F93CF93DF93282F30E0F9012F
:1001B000E255FF4F8491F901E656FF4FD491F901C2
:1001C000EA57FF4FC491CC23A9F0162F81110E944A
:1001D0008000EC2FF0E0EE0FFF1FEE58FF4FA591CF
:1001E000B4918FB7F894EC91111108C0D095DE232B
:1001F000DC938FBFDF91CF911F910895DE2BF8CF55
:10020000CF93DF9390E0FC01E656FF4F24918A578D
:100210009F4FFC0184918823D1F090E0880F991FB3
:10022000FC01E859FF4FA591B491FC01EE58FF4F36
:10023000C591D491623071F49FB7F8943C91822FAC
:10024000809583238C93E8812E2B28839FBFDF9199
:10025000CF9108958FB7F894EC912E2B2C938FBFEC
:10026000F6CF1F920F920FB60F9211242F933F9348
:100270008F939F93AF93BF9380910E0190910F0145
:10028000A0911001B091110130910D0123E0230FD5
:100290002D3758F50196A11DB11D20930D018093B6
:1002A0000E0190930F01A0931001B0931101809162
:1002B000090190910A01A0910B01B0910C010196E6
:1002C000A11DB11D8093090190930A01A0930B0118
:1002D000B0930C01BF91AF919F918F913F912F915E
:1002E0000F900FBE0F901F90189526E8230F0296CF
:1002F000A11DB11DD2CF789484B5826084BD84B530
:10030000816084BD85B5826085BD85B5816085BD10
:1003100080916E00816080936E00109281008091C8
:100320008100826080938100809181008160809350
:100330008100809180008160809380008091B10075
:1003400084608093B1008091B00081608093B000A0
:1003500080917A00846080937A0080917A00826034
:1003600080937A0080917A00816080937A008091F6
:100370007A00806880937A001092C10062E083E185
:100380000E94000162E082E10E94000162E081E1DE
:100390000E94000162E080E10E94000162E08FE0C3
:1003A0000E94000161E080E00E94000161E081E0C4
:1003B0000E940001C1E0D1E061E089910E9400014A
:1003C00081E0C830D807C1F7C1E000E010E082E169
:1003D0000E94A900892B29F4809108018C27809321
:1003E0000801809108018823C9F08FE00E94A900CC
:1003F000892B29F4809100018C278093000161E012
:1004000080E00E94D2006091000181E00E94D20051
:1004100001151105E1F20E940000D9CF60E080E0F3
:0C0420000E94D20060E0F1CFF894FFCF02
:08042C000108070605040302A4
:00000001FF
